S00C00004C4142322E7372656317
S11300000C9434000C9451000C9451000C94510045
S11300100C9451000C9451000C9451000C94510018
S11300200C9451000C9451000C9451000C94510008
S11300300C9451000C9451000C9451000C945100F8
S11300400C9451000C9451000C9451000C945100E8
S11300500C9451000C946A000C9451000C945100BF
S11300600C9451000C94510011241FBECFEFD8E022
S1130070DEBFCDBF11E0A0E0B1E0E8E7F2E002C0EE
S113008005900D92AE30B107D9F721E0AEE0B1E0B2
S113009001C01D92A331B207E1F70E941E010C9426
S11300A03A010C940000F894ACE7B0E01C92109272
S11300B012018C9180668C93EAE7F0E010828081D3
S11300C08F6880838C9183608C938081806480832B
S11300D0789408951F920F920FB60F9211248F9364
S11300E09F93EF93FF9380911201882319F081303D
S11300F099F022C080917800909179009093110139
S113010080931001ECE7F0E08081887F8460808335
S113011081E08093120110C0809178009091790061
S113012090930F0180930E01ECE7F0E08081887FCB
S11301308360808310921201EAE7F0E0808180649A
S11301408083FF91EF919F918F910F900FBE0F903D
S11301501F90189588B1846088B985E08A95F1F775
S1130160000088B18B7F88B98FE891E00197F1F79F
S113017000C0000008958BB988B18E7F88B988B11A
S11301808D7F88B90E94AA008FE39FE10197F1F760
S113019000C0000008958BB988B1816088B988B126
S11301A08D7F88B90E94AA008FE891E00197F1F74A
S11301B000C000000895CF93DF93EC0103C02196A3
S11301C00E94CB0088818111FACFDF91CF910895ED
S11301D0811103C080E8860F02C080EC860F0E9464
S11301E0BB00089581E00E94BB008FE39FE101976B
S11301F0F1F700C0000008952FEF89EF90E021503F
S113020080409040E1F700C0000088E30E94BB00FA
S11302108CE00E94BB0086E00E94BB000E94F200BA
S11302200895F8941092C1008FEF8AB987E087B9D6
S11302300E94FC000E945300789408950E941101CA
S113024060E080E00E94E80080E091E00E94DB0032
S113025060E081E00E94E80086E091E00E94DB001B
S11302602FE78AE196E0215080409040E1F700C0FA
S10B02700000FFCFF894FFCF5A
S1110278446965676F00476172636961000045
S9030000FC
