S00C00004C4142322E7372656317
S11300000C9434000C9451000C9451000C94510045
S11300100C9451000C9451000C9451000C94510018
S11300200C9451000C9451000C9451000C94510008
S11300300C9451000C9451000C9451000C945100F8
S11300400C9451000C9451000C9451000C945100E8
S11300500C9451000C946A000C9451000C945100BF
S11300600C9451000C94510011241FBECFEFD8E022
S1130070DEBFCDBF11E0A0E0B1E0E8E1F5E002C0F1
S113008005900D92AE30B107D9F721E0AEE0B1E0B2
S113009001C01D92A731B207E1F70E9434010C940C
S11300A08A020C940000F894ACE7B0E01C92109221
S11300B012018C9180668C93EAE7F0E010828081D3
S11300C08F6880838C9183608C938081806480832B
S11300D0789408951F920F920FB60F9211248F9364
S11300E09F93EF93FF9380911201882319F081303D
S11300F099F022C080917800909179009093110139
S113010080931001ECE7F0E08081887F8460808335
S113011081E08093120110C0809178009091790061
S113012090930F0180930E01ECE7F0E08081887FCB
S11301308360808310921201EAE7F0E0808180649A
S11301408083FF91EF919F918F910F900FBE0F903D
S11301501F9018959BB1282F30E0220F331F220FD8
S1130160331F9370292B2BB995B19C7F829586956B
S113017086958370892B85B9089588B1846088B980
S113018085E08A95F1F7000088B18B7F88B98FE804
S113019091E00197F1F700C0000008950E94AA00C1
S11301A088B18E7F88B988B18D7F88B90E94BD00DF
S11301B08FE39FE10197F1F700C0000008950E94CA
S11301C0AA0088B1816088B988B18D7F88B90E94FE
S11301D0BD008FE891E00197F1F700C00000089599
S11301E0CF93DF93EC0103C021960E94DF00888146
S11301F08111FACFDF91CF910895811103C080E876
S1130200860F02C080EC860F0E94CE00089581E024
S11302100E94CE008FE39FE10197F1F700C0000038
S113022008952FEF89EF90E0215080409040E1F74E
S113023000C0000088E30E94CE008CE00E94CE0043
S113024086E00E94CE000E9407010895F8948CEF86
S11302508AB983E084B987E087B918B80E9411018C
S11302600E94530078940895CF93DF9300D000D078
S113027000D0CDB7DEB70E942601F894209110017A
S113028030911101309314012093130100910E0158
S113029010910F011093160100931501A4EFB1E022
S11302A00E9446020F2EF8E1CF2EF6EFDF2EE12C4E
S11302B0F12CF02DA70196010E94240229013A0194
S11302C09801A4EFB1E00E944602A70196010E94A2
S11302D0240269017A01789460E080E00E94FD00C4
S11302E080E091E00E94F0005201B694A794B69485
S11302F0A7949501ABE7B4E10E9446028C011695E0
S113030007954AE0BE016F5F7F4FC8010E94550206
S113031084E091E00E94F00063E080E00E94FD0030
S1130320CE0101960E94F00064E080E00E94FD008E
S11303308EE20E94DF000F2EF4E6BF2EF02DB09E59
S1130340C001B19E900D1124481A590A84E091E02D
S11303500E94F00065E080E00E94FD004AE0BE01DA
S11303606F5F7F4F842D90E00E945502CE0101966D
S11303700E94F00084E091E00E94F00067E080E0D9
S11303800E94FD0086E50E94DF0060E081E00E949B
S1130390FD008AE091E00E94F000360176946794B3
S11303A0769467949301ABE7B4E10E9446028C0112
S11303B0169507954AE0BE016F5F7F4FC8010E9402
S11303C0550284E091E00E94F00063E081E00E9425
S11303D0FD00CE0101960E94F00064E081E00E94DD
S11303E0FD008EE20E94DF00B09EC001B19E900D20
S11303F01124C81AD90A84E091E00E94F00065E053
S113040081E00E94FD004AE0BE016F5F7F4F8C2DAA
S113041090E00E945502CE0101960E94F00084E013
S113042091E00E94F00067E081E00E94FD0086E513
S11304300E94DF002FEF85EA9EE02150804090402B
S1130440E1F700C0000019CFA1E21A2EAA1BBB1BC2
S1130450FD010DC0AA1FBB1FEE1FFF1FA217B3078C
S1130460E407F50720F0A21BB30BE40BF50B661FA2
S1130470771F881F991F1A9469F760957095809566
S113048090959B01AC01BD01CF010895A29FB001DD
S1130490B39FC001A39F700D811D1124911DB29FB4
S11304A0700D811D1124911D0895BB274A3031F42C
S11304B0992322F4BDE2909581959F4F0C9461029B
S11304C0BB27FB015527AA27880F991FAA1FA4172A
S11304D010F0A41B83955051B9F7A05DAA3308F01E
S11304E0A95DA193009779F7B111B1931192CB0152
S11304F00C947A02DC01FC01672F71917723E1F7F8
S1130500329704C07C916D9370836291AE17BF07DC
S10B0510C8F30895F894FFCF2D
S111051850313A0020202020200050323A00BA
S9030000FC
