S00C00004C4142322E7372656317
S11300000C9434000C9451000C9451000C94510045
S11300100C9451000C9451000C9451000C94510018
S11300200C9451000C9451000C9451000C94510008
S11300300C9451000C9451000C9451000C945100F8
S11300400C9451000C9451000C9451000C945100E8
S11300500C9451000C946A000C9451000C945100BF
S11300600C9451000C94510011241FBECFEFD8E022
S1130070DEBFCDBF11E0A0E0B1E0EEEEF4E002C0DF
S113008005900D92AE30B107D9F721E0AEE0B1E0B2
S113009001C01D92A731B207E1F70E941F010C9421
S11300A075020C940000F894ACE7B0E01C92109236
S11300B012018C9180668C93EAE7F0E010828081D3
S11300C08F6880838C9183608C938081806480832B
S11300D0789408951F920F920FB60F9211248F9364
S11300E09F93EF93FF9380911201882319F081303D
S11300F099F022C080917800909179009093110139
S113010080931001ECE7F0E08081887F8460808335
S113011081E08093120110C0809178009091790061
S113012090930F0180930E01ECE7F0E08081887FCB
S11301308360808310921201EAE7F0E0808180649A
S11301408083FF91EF919F918F910F900FBE0F903D
S11301501F90189588B1846088B985E08A95F1F775
S1130160000088B18B7F88B98FE891E00197F1F79F
S113017000C0000008958BB988B18E7F88B988B11A
S11301808D7F88B90E94AA008FE39FE10197F1F760
S113019000C0000008958BB988B1816088B988B126
S11301A08D7F88B90E94AA008FE891E00197F1F74A
S11301B000C000000895CF93DF93EC0103C02196A3
S11301C00E94CB0088818111FACFDF91CF910895ED
S11301D0811103C080E8860F02C080EC860F0E9464
S11301E0BB00089581E00E94BB008FE39FE101976B
S11301F0F1F700C0000008952FEF89EF90E021503F
S113020080409040E1F700C0000088E30E94BB00FA
S11302108CE00E94BB0086E00E94BB000E94F200BA
S11302200895F8941092C1008FEF8AB987E087B9D6
S113023018B80E94FC000E94530078940895CF934C
S1130240DF9300D000D000D0CDB7DEB70E941101FB
S1130250F8942091100130911101309314012093EE
S1130260130100910E0110910F01109316010093D8
S11302701501A4EFB1E00E9431020F2EF8E1CF2E58
S1130280F6EFDF2EE12CF12CF02DA70196010E9450
S11302900F0229013A019801A4EFB1E00E94310252
S11302A0A70196010E940F0269017A01789460E027
S11302B080E00E94E80080E091E00E94DB005201AF
S11302C0B694A794B694A7949501ABE7B4E10E94C1
S11302D031028C01169507954AE0BE016F5F7F4F8E
S11302E0C8010E94400284E091E00E94DB0063E0C8
S11302F080E00E94E800CE0101960E94DB0064E0E9
S113030080E00E94E8008EE20E94CB000F2EF4E60B
S1130310BF2EF02DB09EC001B19E900D1124481A3D
S1130320590A84E091E00E94DB0065E080E00E94CD
S1130330E8004AE0BE016F5F7F4F842D90E00E9489
S11303404002CE0101960E94DB0084E091E00E940D
S1130350DB0067E080E00E94E80086E50E94CB00B5
S113036060E081E00E94E8008AE091E00E94DB0006
S1130370360176946794769467949301ABE7B4E17D
S11303800E9431028C01169507954AE0BE016F5F09
S11303907F4FC8010E94400284E091E00E94DB008C
S11303A063E081E00E94E800CE0101960E94DB0038
S11303B064E081E00E94E8008EE20E94CB00B09EDF
S11303C0C001B19E900D1124C81AD90A84E091E0AD
S11303D00E94DB0065E081E00E94E8004AE0BE0183
S11303E06F5F7F4F8C2D90E00E944002CE010196FA
S11303F00E94DB0084E091E00E94DB0067E081E082
S11304000E94E80086E50E94CB002FEF85EA9EE07B
S1130410215080409040E1F700C0000019CFA1E2D4
S11304201A2EAA1BBB1BFD010DC0AA1FBB1FEE1F6A
S1130430FF1FA217B307E407F50720F0A21BB30BB5
S1130440E40BF50B661F771F881F991F1A9469F731
S113045060957095809590959B01AC01BD01CF018D
S11304600895A29FB001B39FC001A39F700D811D89
S11304701124911DB29F700D811D1124911D0895A9
S1130480BB274A3031F4992322F4BDE2909581953B
S11304909F4F0C944C02BB27FB015527AA27880FBA
S11304A0991FAA1FA41710F0A41B83955051B9F7E4
S11304B0A05DAA3308F0A95DA193009779F7B11163
S11304C0B1931192CB010C946502DC01FC01672FFE
S11304D071917723E1F7329704C07C916D93708317
S11104E06291AE17BF07C8F30895F894FFCFDA
S11104EE50313A0020202020200050323A00E5
S9030000FC
