S00C00004C4142322E7372656317
S11300000C9434000C9451000C9451000C94510045
S11300100C9451000C9451000C9451000C94510018
S11300200C9451000C9451000C9451000C94510008
S11300300C9451000C9451000C9451000C945100F8
S11300400C9451000C9451000C9451000C945100E8
S11300500C9451000C946A000C9451000C945100BF
S11300600C9451000C94510011241FBECFEFD8E022
S1130070DEBFCDBF11E0A0E0B1E0E6E9FCE002C0E4
S113008005900D92A637B107D9F721E0A6E7B1E0B4
S113009001C01D92AF37B207E1F70E9438010C94FA
S11300A049060C940000F894ACE7B0E01C9210925E
S11300B07A018C9180668C93EAE7F0E0108280816B
S11300C08F6880838C9183608C938081806480832B
S11300D0789408951F920F920FB60F9211248F9364
S11300E09F93EF93FF9380917A01882319F08130D5
S11300F099F022C0809178009091790090937901D1
S113010080937801ECE7F0E08081887F84608083CD
S113011081E080937A0110C08091780090917900F9
S11301209093770180937601ECE7F0E08081887FFB
S11301308360808310927A01EAE7F0E08081806432
S11301408083FF91EF919F918F910F900FBE0F903D
S11301501F9018959BB1282F30E0220F331F220FD8
S1130160331F9370292B2BB995B19C7F829586956B
S113017086958370892B85B9089588B1846088B980
S113018085E08A95F1F7000088B18B7F88B98FE804
S113019091E00197F1F700C0000008950E94AA00C1
S11301A088B18E7F88B988B18D7F88B90E94BD00DF
S11301B08FE39FE10197F1F700C0000008950E94CA
S11301C0AA0088B1816088B988B18D7F88B90E94FE
S11301D0BD008FE891E00197F1F700C00000089599
S11301E0CF93DF93EC0103C021960E94DF00888146
S11301F08111FACFDF91CF910895811103C080E876
S1130200860F02C080EC860F0E94CE00089581E024
S11302100E94CE008FE39FE10197F1F700C0000038
S113022008952FEF89EF90E0215080409040E1F74E
S113023000C0000088E30E94CE008CE00E94CE0043
S113024086E00E94CE000E9407010895F8948CEF86
S11302508AB983E084B987E087B918B80E9411018C
S11302600E94530087E690E00E94C10278940895AA
S1130270CF93DF93CDB7DEB7A6970FB6F894DEBF62
S11302800FBECDBF0E942601912CF89420917801D5
S11302903091790130937C0120937B0100917601A8
S11302A01091770110937E0100937D01A4EFB1E0DA
S11302B00E940D030F2EF8E1CF2EF6EFDF2EE12C76
S11302C0F12CF02DA70196010E94EB0229013A01BD
S11302D09801A4EFB1E00E940D03A70196010E94CA
S11302E0EB0269017A019201369527953695279597
S11302F0ABE7B4E10E940D035C01B694A79444E615
S11303004A9DC0014B9D900D11245201A81AB90AAF
S1130310960136952795369527950E940D038C01F5
S113032016950795409FC001419F900D11248601A9
S1130330081B190B789491100EC080E091E00E9484
S1130340D30280E191E00E94D30289E291E00E940D
S1130350D302992493940E94E702882309F471C07C
S11303600E94E002882E0E94CC028DE091E00E945F
S1130370D30221E3821265C0920136952795369502
S11303802795ABE7B4E10E940D03969587959F935B
S11303908F9387E391E09F938F931F9280E28F93D3
S11303A0CE0101964C019F938F930E944103C40197
S11303B00E94D302C50199279F938F930F2EFCE4CB
S11303C02F2EF1E03F2EF02D3F922F921F9290E2BC
S11303D09F939F928F920E944103C4010E94D30273
S11303E096013695279536952795ABE7B4E10E949B
S11303F00D03969587959F938F9383E591E09F9343
S11304008F931F9220E22F939F928F920E94410319
S1130410C4010E94D302C80199279F938F933F92EE
S11304202F921F9280E28F939F928F920E9441039A
S11304300FB6F894DEBF0FBECDBFC4010E94D30235
S1130440912C60E080E00E94FD0088E691E00E942B
S1130450F00092013695279536952795ABE7B4E1E0
S11304600E940D034AE0BE016F5D7F4F969587950C
S11304700E941C038CE691E00E94F00063E080E09F
S11304800E94FD00CE0181960E94F00064E080E0AD
S11304900E94FD008EE20E94DF008CE691E00E9443
S11304A0F00065E080E00E94FD004AE0BE016F5D5F
S11304B07F4F8A2D90E00E941C03CE0181960E94FA
S11304C0F0008CE691E00E94F00067E080E00E947A
S11304D0FD0086E50E94DF0060E081E00E94FD00EF
S11304E082E791E00E94F0009601369527953695B3
S11304F02795ABE7B4E10E940D034AE0BE016F5DAE
S11305007F4F969587950E941C038CE691E00E948C
S1130510F00063E081E00E94FD00CE0181960E941C
S1130520F00064E081E00E94FD008EE20E94DF00A2
S11305308CE691E00E94F00065E081E00E94FD00FD
S11305404AE0BE016F5D7F4F802F90E00E941C0344
S1130550CE0181960E94F0008CE691E00E94F000AA
S113056067E081E00E94FD0086E50E94DF009FEFC6
S113057025EA8EE0915020408040E1F700C0000061
S113058084CE9093C5008093C40088E18093C10019
S113059086E08093C20008959091C00095FFFCCF3F
S11305A08093C6000895CF93DF93EC0103C0219696
S11305B00E94CC0288818111FACFDF91CF910895F6
S11305C08091C0008823E4F78091C600089580914B
S11305D0C00080780895A1E21A2EAA1BBB1BFD015E
S11305E00DC0AA1FBB1FEE1FFF1FA217B307E4070E
S11305F0F50720F0A21BB30BE40BF50B661F771F66
S1130600881F991F1A9469F7609570958095909545
S11306109B01AC01BD01CF010895A29FB001B39F1E
S1130620C001A39F700D811D1124911DB29F700DF7
S1130630811D1124911D0895BB274A3031F499235B
S113064022F4BDE2909581959F4F0C942803BB271B
S1130650FB015527AA27880F991FAA1FA41710F07A
S1130660A41B83955051B9F7A05DAA3308F0A95D86
S1130670A193009779F7B111B1931192CB010C9426
S11306806805AEE0B0E0E7E4F3E00C9420060D89E1
S11306901E898F89988D26E02C831A83098397FFFE
S11306A002C080E090E801979E838D83AE01455E91
S11306B05F4F698D7A8DCE0101960E9471034D8141
S11306C05E8157FD0AC02F813885421753070CF409
S11306D09A01F801E20FF31F10822E96E4E00C94C5
S11306E03C06ABE0B0E0E7E7F3E00C9412066C01E3
S11306F07B018A01FC0117821682838181FFCCC1B0
S1130700CE0101963C01F6019381F70193FD859199
S113071093FF81917F01882309F4BAC1853239F4AA
S113072093FD859193FF81917F01853229F4B60170
S113073090E00E947805E7CF912C212C312CFFE129
S1130740F315D8F08B3279F038F4803279F08332B3
S1130750A1F4232D20611DC08D3261F0803369F432
S1130760232D216016C0832D8260382EE32DE46092
S11307703E2E2AC0F32DF8601DC037FC2DC020ED9D
S1130780280F2A3040F08E32B9F436FC81C1232D73
S11307902064322E19C036FE06C08AE0989E200DD1
S11307A01124922E11C0EAE02E9E200D1124222E37
S11307B0F32DF0623F2E08C08C3621F4832D80681F
S11307C0382E02C0883641F4F70193FD859193FFDA
S11307D081917F018111B3CF982F9F7D95549330E0
S11307E028F40C5F1F4F9FE399830DC0833631F0CB
S11307F0833771F0833509F059C021C0F801808135
S113080089830E5F1F4F88248394912C530113C056
S11308102801F2E04F0E511CF801A080B18036FE91
S113082003C0692D70E002C06FEF7FEFC5010E9425
S11308305D054C018201F32DFF773F2E16C0280180
S113084022E0420E511CF801A080B18036FE03C0A4
S1130850692D70E002C06FEF7FEFC5010E94520561
S11308604C01F32DF0683F2E820133FC1BC0822D16
S113087090E088169906B0F4B60180E290E00E94F8
S113088078052A94F4CFF50137FC859137FE8191E0
S11308905F01B60190E00E94780521102A9421E0BE
S11308A0821A91088114910471F7E8C0843611F01A
S11308B0893641F5F80137FE07C060817181828174
S11308C093810C5F1F4F08C060817181072E000C5B
S11308D0880B990B0E5F1F4FF32DFF763F2E97FF6A
S11308E009C090958095709561957F4F8F4F9F4F6C
S11308F0F0683F2E2AE030E0A3010E94B405882E60
S1130900861845C0853731F4232D2F7EB22E2AE078
S113091030E025C0932D997FB92E8F36C1F018F49D
S1130920883579F0B5C0803719F0883721F0B0C028
S1130930E92FE061BE2EB4FE0DC0FB2DF460BF2E86
S113094009C034FE0AC0292F2660B22E06C028E052
S113095030E005C020E130E002C020E132E0F801DF
S1130960B7FE07C060817181828193810C5F1F4F44
S113097006C06081718180E090E00E5F1F4FA3018B
S11309800E94B405882E8618FB2DFF773F2E36FE75
S11309900DC0232D2E7FA22E891458F434FE0BC0D3
S11309A032FC09C0832D8E7EA82E05C0B82CA32C42
S11309B003C0B82C01C0B92CA4FE0FC0FE01E80D81
S11309C0F11D8081803321F49A2D997EA92E09C0CE
S11309D0A2FE06C0B394B39404C08A2D867809F0AD
S11309E0B394A3FC11C0A0FE06C0B21488F4280C72
S11309F0922C9B180EC0B21460F4B60180E290E011
S1130A000E947805B394F7CFB21418F42B1802C0DF
S1130A10982C212CA4FE10C0B60180E390E00E9423
S1130A207805A2FE17C0A1FC03C088E790E002C0CD
S1130A3088E590E0B6010CC08A2D867859F0A1FEB5
S1130A4002C08BE201C080E2A7FC8DE2B60190E017
S1130A500E947805891438F4B60180E390E00E947E
S1130A6078059A94F7CF8A94F301E80DF11D8081FB
S1130A70B60190E00E9478058110F5CF222009F498
S1130A8042CEB60180E290E00E9478052A94F6CF27
S1130A90F6018681978102C08FEF9FEF2B96E2E1EA
S1130AA00C942E06FC010590615070400110D8F79B
S1130AB0809590958E0F9F1F0895FC0161507040A2
S1130AC001900110D8F7809590958E0F9F1F08957F
S1130AD0DC01FC01672F71917723E1F7329704C0A1
S1130AE07C916D9370836291AE17BF07C8F308952C
S1130AF00F931F93CF93DF93FB01238121FD03C049
S1130B008FEF9FEF2CC022FF16C0468157812481AE
S1130B1035814217530744F4A081B1819D012F5FB1
S1130B203F4F318320838C93268137812F5F3F4F42
S1130B303783268314C08B01EC01FB010084F1850B
S1130B40E02D0995892BE1F6D80116968D919C919B
S1130B501797019617969C938E931697CE01DF9163
S1130B60CF911F910F910895FA01AA27283051F1CE
S1130B70203181F1E8946F936E7F6E5F7F4F8F4FCA
S1130B809F4FAF4FB1E03ED0B4E03CD0670F781F29
S1130B90891F9A1FA11D680F791F8A1F911DA11D0E
S1130BA06A0F711D811D911DA11D20D009F4689447
S1130BB03F912AE0269F11243019305D3193DEF6EF
S1130BC0CF010895462F4770405D4193B3E00FD0A5
S1130BD0C9F7F6CF462F4F70405D4A3318F0495D90
S1130BE031FD4052419302D0A9F7EACFB4E0A69573
S1130BF09795879577956795BA95C9F70097610595
S1130C00710508959B01AC010A2E069457954795EA
S1130C1037952795BA95C9F7620F731F841F951FDF
S1130C20A01D08952F923F924F925F926F927F92F0
S1130C308F929F92AF92BF92CF92DF92EF92FF92E8
S1130C400F931F93CF93DF93CDB7DEB7CA1BDB0B94
S1130C500FB6F894DEBF0FBECDBF09942A88398839
S1130C6048885F846E847D848C849B84AA84B98440
S1130C70C884DF80EE80FD800C811B81AA81B9814C
S1130C80CE0FD11D0FB6F894DEBF0FBECDBFED0160
S1090C900895F894FFCF63
S1130C960D0A202D2D2D4D656E752D2D2D0D0A0059
S1130CA6312E204C65657220506F74656E63696FD2
S1130CB66D6574726F730D0A00322E20436F6E7465
S1130CC661646F720D0A0056616C6F7220766F6CE8
S1130CD674616A6520313A2025752E0020257556E3
S1130CE60D0A0056616C6F7220766F6C74616A65CA
S1130CF620323A2025752E0050313A00202020203B
S1090D06200050323A0007
S9030000FC
