:100000000C9434000C9451000C9451000C94510049
:100010000C9451000C9451000C9451000C9451001C
:100020000C9451000C9451000C9451000C9451000C
:100030000C9451000C9451000C9451000C945100FC
:100040000C9451000C9451000C9451000C945100EC
:100050000C9451000C946A000C9451000C945100C3
:100060000C9451000C94510011241FBECFEFD8E026
:10007000DEBFCDBF11E0A0E0B1E0E4E2FDE002C0F0
:1000800005900D92A03EB107D9F721E0A0EEB1E0B6
:1000900001C01D92A93EB207E1F70E9438010C94FD
:1000A00090060C940000F894ACE7B0E01C9210921B
:1000B000E4018C9180668C93EAE7F0E01082808105
:1000C0008F6880838C9183608C938081806480832F
:1000D000789408951F920F920FB60F9211248F9368
:1000E0009F93EF93FF938091E401882319F081306F
:1000F00099F022C080917800909179009093E3016B
:100100008093E201ECE7F0E08081887F8460808367
:1001100081E08093E40110C0809178009091790093
:100120009093E1018093E001ECE7F0E08081887F2B
:10013000836080831092E401EAE7F0E080818064CC
:100140008083FF91EF919F918F910F900FBE0F9041
:100150001F9018959BB1282F30E0220F331F220FDC
:10016000331F9370292B2BB995B19C7F829586956F
:1001700086958370892B85B9089588B1846088B984
:1001800085E08A95F1F7000088B18B7F88B98FE808
:1001900091E00197F1F700C0000008950E94AA00C5
:1001A00088B18E7F88B988B18D7F88B90E94BD00E3
:1001B0008FE39FE10197F1F700C0000008950E94CE
:1001C000AA0088B1816088B988B18D7F88B90E9402
:1001D000BD008FE891E00197F1F700C0000008959D
:1001E000CF93DF93EC0103C021960E94DF0088814A
:1001F0008111FACFDF91CF910895811103C080E87A
:10020000860F02C080EC860F0E94CE00089581E028
:100210000E94CE008FE39FE10197F1F700C000003C
:1002200008952FEF89EF90E0215080409040E1F752
:1002300000C0000088E30E94CE008CE00E94CE0047
:1002400086E00E94CE000E9407010895F8948CEF8A
:100250008AB983E084B987E087B918B80E94110190
:100260000E94530087E690E00E9408037894089566
:10027000CF93DF93CDB7DEB7A6970FB6F894DEBF66
:100280000FBECDBF0E942601312C912CF8942091F5
:10029000E2013091E3013093E6012093E501009102
:1002A000E0011091E1011093E8010093E701A4EF50
:1002B000B1E00E9454030F2EF8E1CF2EF6EFDF2EAF
:1002C000E12CF12CF02DA70196010E9432032901A7
:1002D0003A019801A4EFB1E00E945403A7019601EE
:1002E0000E94320369017A0192013695279536956D
:1002F0002795ABE7B4E10E9454035C01B694A79440
:1003000044E64A9DC0014B9D900D11245201A81A4C
:10031000B90A960136952795369527950E9454037C
:100320008C0116950795409FC001419F900D1124A7
:100330008601081B190B789491100EC080E091E0A3
:100340000E941A0380E191E00E941A0389E291E081
:100350000E941A03992493940E942E03882309F47F
:100360009BC00E942703982E0E9413038DE091E00A
:100370000E941A0321E3921262C0920136952795DA
:1003800036952795ABE7B4E10E945403969587957F
:100390009F938F9387E391E09F938F931F9268942D
:1003A000222425F82F92CE0101964C019F938F9322
:1003B0000E948803C4010E941A03C50199279F93D4
:1003C0008F938CE491E09F938F931F922F929F9233
:1003D0008F920E948803C4010E941A0396013695E9
:1003E000279536952795ABE7B4E10E94540396957F
:1003F00087959F938F9383E591E09F938F931F92AF
:100400002F929F928F920E948803C4010E941A0328
:10041000C80199279F938F938CE491E09F938F93CA
:100420001F922F929F928F920E9488030FB6F8948A
:10043000DEBF0FBECDBFC4010E941A0323C092E3EA
:1004400099121CC088E691E00E941A030E942703BB
:10045000982E0E9413038EE891E00E941A032BE26B
:10046000921202C033940EC08DE2981202C03A94E8
:1004700009C084EA91E00E941A0304C08AEB91E06B
:100480000E941A039FEF23EC89E0915020408040A6
:10049000E1F700C00000912C60E080E00E94FD00C8
:1004A0008DEC91E00E94F0009201369527953695EB
:1004B0002795ABE7B4E10E9454034AE0BE016F5DAB
:1004C0007F4F969587950E94630381ED91E00E948E
:1004D000F00063E080E00E94FD00CE0181960E9462
:1004E000F00064E080E00E94FD008EE20E94DF00E8
:1004F00081ED91E00E94F00065E080E00E94FD0047
:100500004AE0BE016F5D7F4F8A2D90E00E94630339
:10051000CE0181960E94F00081ED91E00E94F000F2
:1005200067E080E00E94FD0086E50E94DF0060E059
:1005300081E00E94FD0087ED91E00E94F0009601AD
:100540003695279536952795ABE7B4E10E9454037D
:100550004AE0BE016F5D7F4F969587950E946303C9
:1005600081ED91E00E94F00063E081E00E94FD00D7
:10057000CE0181960E94F00064E081E00E94FD00BF
:100580008EE20E94DF0081ED91E00E94F00065E0C4
:1005900081E00E94FD004AE0BE016F5D7F4F802F29
:1005A00090E00E946303CE0181960E94F00081EDED
:1005B00091E00E94F00067E081E00E94FD0086E586
:1005C0000E94DF0069E081E00E94FD008BED91E078
:1005D0000E94F0004AE0BE016F5D7F4F832D90E0E6
:1005E0000E94630381ED91E00E94F0006CE081E0E5
:1005F0000E94FD00CE0181960E94F0009FEF25EA47
:100600008EE0915020408040E1F700C000003ECED7
:100610009093C5008093C40088E18093C10086E078
:100620008093C20008959091C00095FFFCCF809305
:10063000C6000895CF93DF93EC0103C021960E947A
:10064000130388818111FACFDF91CF9108958091B2
:10065000C0008823E4F78091C60008958091C0000F
:1006600080780895A1E21A2EAA1BBB1BFD010DC0C4
:10067000AA1FBB1FEE1FFF1FA217B307E407F50752
:1006800020F0A21BB30BE40BF50B661F771F881F2E
:10069000991F1A9469F760957095809590959B01C4
:1006A000AC01BD01CF010895A29FB001B39FC0016D
:1006B000A39F700D811D1124911DB29F700D811D8E
:1006C0001124911D0895BB274A3031F4992322F457
:1006D000BDE2909581959F4F0C946F03BB27FB0162
:1006E0005527AA27880F991FAA1FA41710F0A41B2B
:1006F00083955051B9F7A05DAA3308F0A95DA19385
:10070000009779F7B111B1931192CB010C94AF0519
:10071000AEE0B0E0EEE8F3E00C9467060D891E89C8
:100720008F89988D26E02C831A83098397FF02C056
:1007300080E090E801979E838D83AE01455E5F4F18
:10074000698D7A8DCE0101960E94B8034D815E813C
:1007500057FD0AC02F813885421753070CF49A01C0
:10076000F801E20FF31F10822E96E4E00C9483064A
:10077000ABE0B0E0EEEBF3E00C9459066C017B01CA
:100780008A01FC0117821682838181FFCCC1CE01D0
:1007900001963C01F6019381F70193FD859193FF4A
:1007A00081917F01882309F4BAC1853239F493FD20
:1007B000859193FF81917F01853229F4B60190E004
:1007C0000E94BF05E7CF912C212C312CFFE1F315BE
:1007D000D8F08B3279F038F4803279F08332A1F49A
:1007E000232D20611DC08D3261F0803369F4232DEB
:1007F000216016C0832D8260382EE32DE4603E2EEA
:100800002AC0F32DF8601DC037FC2DC020ED280F45
:100810002A3040F08E32B9F436FC81C1232D206499
:10082000322E19C036FE06C08AE0989E200D112493
:10083000922E11C0EAE02E9E200D1124222EF32DBF
:10084000F0623F2E08C08C3621F4832D8068382E4C
:1008500002C0883641F4F70193FD859193FF8191A1
:100860007F018111B3CF982F9F7D9554933028F449
:100870000C5F1F4F9FE399830DC0833631F08337A0
:1008800071F0833509F059C021C0F8018081898356
:100890000E5F1F4F88248394912C530113C02801AD
:1008A000F2E04F0E511CF801A080B18036FE03C06B
:1008B000692D70E002C06FEF7FEFC5010E94A405B3
:1008C0004C018201F32DFF773F2E16C0280122E054
:1008D000420E511CF801A080B18036FE03C0692D84
:1008E00070E002C06FEF7FEFC5010E9499054C01D7
:1008F000F32DF0683F2E820133FC1BC0822D90E067
:1009000088169906B0F4B60180E290E00E94BF0517
:100910002A94F4CFF50137FC859137FE81915F0170
:10092000B60190E00E94BF0521102A9421E0821AAE
:1009300091088114910471F7E8C0843611F089366A
:1009400041F5F80137FE07C0608171818281938192
:100950000C5F1F4F08C060817181072E000C880B4F
:10096000990B0E5F1F4FF32DFF763F2E97FF09C0A7
:1009700090958095709561957F4F8F4F9F4FF06850
:100980003F2E2AE030E0A3010E94FB05882E861846
:1009900045C0853731F4232D2F7EB22E2AE030E07A
:1009A00025C0932D997FB92E8F36C1F018F4883564
:1009B00079F0B5C0803719F0883721F0B0C0E92F41
:1009C000E061BE2EB4FE0DC0FB2DF460BF2E09C049
:1009D00034FE0AC0292F2660B22E06C028E030E07F
:1009E00005C020E130E002C020E132E0F801B7FEAE
:1009F00007C060817181828193810C5F1F4F06C0A7
:100A00006081718180E090E00E5F1F4FA3010E9422
:100A1000FB05882E8618FB2DFF773F2E36FE0DC076
:100A2000232D2E7FA22E891458F434FE0BC032FCE5
:100A300009C0832D8E7EA82E05C0B82CA32C03C020
:100A4000B82C01C0B92CA4FE0FC0FE01E80DF11DA9
:100A50008081803321F49A2D997EA92E09C0A2FEAF
:100A600006C0B394B39404C08A2D867809F0B39479
:100A7000A3FC11C0A0FE06C0B21488F4280C922C6E
:100A80009B180EC0B21460F4B60180E290E00E94A0
:100A9000BF05B394F7CFB21418F42B1802C0982CEA
:100AA000212CA4FE10C0B60180E390E00E94BF0597
:100AB000A2FE17C0A1FC03C088E790E002C088E551
:100AC00090E0B6010CC08A2D867859F0A1FE02C0D4
:100AD0008BE201C080E2A7FC8DE2B60190E00E94AB
:100AE000BF05891438F4B60180E390E00E94BF0589
:100AF0009A94F7CF8A94F301E80DF11D8081B60135
:100B000090E00E94BF058110F5CF222009F442CE6B
:100B1000B60180E290E00E94BF052A94F6CFF6016C
:100B20008681978102C08FEF9FEF2B96E2E10C94B4
:100B30007506FC010590615070400110D8F7809552
:100B400090958E0F9F1F0895FC0161507040019099
:100B50000110D8F7809590958E0F9F1F0895DC01A6
:100B6000FC01672F71917723E1F7329704C07C91E4
:100B70006D9370836291AE17BF07C8F308950F930A
:100B80001F93CF93DF93FB01238121FD03C08FEFE0
:100B90009FEF2CC022FF16C04681578124813581EA
:100BA0004217530744F4A081B1819D012F5F3F4F4D
:100BB000318320838C93268137812F5F3F4F37838A
:100BC000268314C08B01EC01FB010084F185E02D2C
:100BD0000995892BE1F6D80116968D919C9117976E
:100BE000019617969C938E931697CE01DF91CF9125
:100BF0001F910F910895FA01AA27283051F1203151
:100C000081F1E8946F936E7F6E5F7F4F8F4F9F4FA0
:100C1000AF4FB1E03ED0B4E03CD0670F781F891FE2
:100C20009A1FA11D680F791F8A1F911DA11D6A0FB0
:100C3000711D811D911DA11D20D009F468943F9163
:100C40002AE0269F11243019305D3193DEF6CF0162
:100C50000895462F4770405D4193B3E00FD0C9F728
:100C6000F6CF462F4F70405D4A3318F0495D31FD95
:100C70004052419302D0A9F7EACFB4E0A6959795E8
:100C8000879577956795BA95C9F7009761057105BE
:100C900008959B01AC010A2E069457954795379508
:100CA0002795BA95C9F7620F731F841F951FA01D62
:100CB00008952F923F924F925F926F927F928F9200
:100CC0009F92AF92BF92CF92DF92EF92FF920F93DB
:100CD0001F93CF93DF93CDB7DEB7CA1BDB0B0FB6E5
:100CE000F894DEBF0FBECDBF09942A8839884888A2
:100CF0005F846E847D848C849B84AA84B984C88438
:100D0000DF80EE80FD800C811B81AA81B981CE0F2E
:100D1000D11D0FB6F894DEBF0FBECDBFED01089513
:040D2000F894FFCF75
:100D24000D0A202D2D2D4D656E752D2D2D0D0A00CE
:100D3400312E204C65657220506F74656E63696F47
:100D44006D6574726F730D0A00322E20436F6E74DA
:100D540061646F720D0A0056616C6F7220766F6C5D
:100D640074616A6520313A2025752E002025755658
:100D74000D0A0056616C6F7220766F6C74616A653F
:100D840020323A2025752E00457363726962612012
:100D94002B2073692065732073756D612079202D74
:100DA4002073692065732072657374613A000D0ABB
:100DB400204F7065726163696F6E2072656369624A
:100DC400696461004F7065726163696F6E20696E5A
:100DD40076616C6964612E0D0A004F7063696F6EF1
:100DE40020696E76616C6964612E0D0A0050313A97
:100DF4000020202020200050323A0053333A0000D3
:00000001FF
