:100000000C943B000C944D000C944D000C944D004E
:100010000C944D000C944D000C944D000C944D002C
:100020000C944D000C944D000C944D000C944D001C
:100030000C944D000C944D000C944D000C944D000C
:100040000C944D000C9407010C944D000C944D0041
:100050000C944D000C9466000C944D000C944D00D3
:100060000C944D000C944D00700177017E018801C5
:1000700092019C01A60111241FBECFEFD8E0DEBF84
:10008000CDBF21E0A0E0B1E001C01D92A730B207D2
:10009000E1F70E94AE000C94C3010C940000F894A8
:1000A000ACE7B0E01C92109202018C9180668C93B8
:1000B000EAE7F0E0108280818F6880838C91836012
:1000C0008C93808180648083789408951F920F922E
:1000D0000FB60F9211248F93EF93FF93809102013B
:1000E000882319F0813079F01AC0ECE7F0E08081C4
:1000F000887F83608083809179008093010181E013
:10010000809302010CC0ECE7F0E08081887F84607E
:100110008083809179008093000110920201EAE7C8
:10012000F0E0808180648083FF91EF918F910F9048
:100130000FBE0F901F9018951092C10087B180627A
:1001400087B98AB18FEF8AB988B18F7D88B985B1B7
:100150008C7F85B98BB183708BB90895F8940E9418
:100160009C0020E040E060E080E40E9458010E9492
:100170004F008CB580688CBD7894FFCF882324F421
:1001800095B1926095B903C095B19D7F95B986FFF1
:1001900004C095B1916095B903C095B19E7F95B9A2
:1001A00085FF04C09BB190689BB903C09BB19F774A
:1001B0009BB984FF04C09BB190649BB903C09BB101
:1001C0009F7B9BB983FF04C09BB190629BB903C026
:1001D0009BB19F7D9BB982FF04C09BB190619BB98D
:1001E00003C09BB19F7E9BB981FF04C09BB1986007
:1001F0009BB903C09BB1977F9BB980FF04C08BB1B3
:1002000084608BB908958BB18B7F8BB908951F9251
:100210000F920FB60F9211242F933F934F935F933A
:100220006F937F938F939F93AF93BF93EF93FF93BE
:100230009EB580910301882319F0813049F027C0D1
:10024000809104010E94BE0081E0809303011FC0E1
:10025000913659F48091010180930601809100014B
:10026000809305018EBD10920301933659F480915D
:1002700001018093060120910001209305018EBDAC
:1002800010920301943619F48EB580930401FF9106
:10029000EF91BF91AF919F918F917F916F915F91FE
:1002A0004F913F912F910F900FBE0F901F90189577
:1002B000E82F84FF52C084B18C6284B984B18F7EF0
:1002C00084B98CB580618CBDE7708E2F90E087304B
:1002D000910508F04BC0FC01EC5CFF4F0C94BD0194
:1002E0008CB58C7F8CBD8DB581608DBD3FC08CB5CC
:1002F0008C7F8CBD8DB58E7F8DBD38C08CB58160F7
:100300008CBD8CB58D7F8CBD8DB581608DBD2EC0B3
:100310008CB581608CBD8CB58D7F8CBD8DB58E7F8D
:100320008DBD24C08CB58E7F8CBD8CB582608CBD9C
:100330008DB581608DBD1AC08CB58E7F8CBD8CB59E
:1003400082608CBD8DB58E7F8DBD10C08CB58360F5
:100350008CBD8DB58E7F8DBD09C084B1806184B99F
:1003600084B1837D84B98CB58F7E8CBD8CB5462BD2
:10037000242B282B20642CBD0895EE0FFF1F059021
:0A038000F491E02D0994F894FFCFEA
:00000001FF
