:100000000C943B000C944D000C944D000C944D004E
:100010000C944D000C944D000C944D000C944D002C
:100020000C944D000C944D000C944D000C944D001C
:100030000C944D000C944D000C944D000C944D000C
:100040000C944D000C94C6000C944D000C944D0083
:100050000C944D000C9466000C944D000C944D00D3
:100060000C944D000C944D0027012E0135013F01E9
:10007000490153015D0111241FBECFEFD8E0DEBF5F
:10008000CDBF21E0A0E0B1E001C01D92A530B207D4
:10009000E1F70E94AE000C947C010C940000F894EF
:1000A000ACE7B0E01C92109202018C9180668C93B8
:1000B000EAE7F0E0108280818F6880838C91836012
:1000C0008C93808180648083789408951F920F922E
:1000D0000FB60F9211248F93EF93FF93809102013B
:1000E000882319F0813079F01AC0809179008093CB
:1000F0000101ECE7F0E08081887F8460808381E00B
:10010000809302010CC08091790080930001ECE79C
:10011000F0E08081887F8360808310920201EAE7AB
:10012000F0E0808180648083FF91EF918F910F9048
:100130000FBE0F901F9018951092C10087B180627A
:1001400087B98AB18C6F8AB988B18F7D88B985B13A
:100150008C7F85B98BB183708BB90895F8940E9418
:100160009C0020E040E060E080E40E940F010E94DB
:100170004F008CB580688CBD7894EAE7F0E0808110
:1001800080648083809101018BB9F7CF1F920F9219
:100190000FB60F9211242F933F934F935F936F935A
:1001A0007F938F939F93AF93BF93EF93FF939EB5EE
:1001B000933621F5209101012093040180910001E3
:1001C00080930301913669F4822F0E9474012FEF0E
:1001D00083EC99E0215080409040E1F700C000009E
:1001E0000DC0923659F40E9474012FEF83EC99E010
:1001F000215080409040E1F700C00000FF91EF9156
:10020000BF91AF919F918F917F916F915F914F912E
:100210003F912F910F900FBE0F901F901895E82FD0
:1002200084FF52C084B18C6284B984B18F7E84B95A
:100230008CB580618CBDE7708E2F90E08730910582
:1002400008F04BC0FC01EC5CFF4F0C9476018CB5C0
:100250008C7F8CBD8DB581608DBD3FC08CB58C7F92
:100260008CBD8DB58E7F8DBD38C08CB581608CBD49
:100270008CB58D7F8CBD8DB581608DBD2EC08CB54C
:1002800081608CBD8CB58D7F8CBD8DB58E7F8DBD15
:1002900024C08CB58E7F8CBD8CB582608CBD8DB535
:1002A00081608DBD1AC08CB58E7F8CBD8CB582608F
:1002B0008CBD8DB58E7F8DBD10C08CB583608CBD1F
:1002C0008DB58E7F8DBD09C084B1806184B984B144
:1002D000837D84B98CB58F7E8CBD8CB5462B242B49
:1002E000282B20642CBD08958EBD0895EE0FFF1FAE
:0C02F0000590F491E02D0994F894FFCFE4
:00000001FF
